:100000000C9434000C9451000C9451000C94D401C5
:100010000C9451000C9451000C9451000C9451001C
:100020000C9451000C9451000C9451000C9451000C
:100030000C9451000C9451000C9451000C945100FC
:100040000C9451000C9451000C9451000C945100EC
:100050000C9451000C9451000C9451000C945100DC
:100060000C9451000C94510011241FBECFEFD8E026
:10007000DEBFCDBF11E0A0E0B1E0EEE3F7E002C0EB
:1000800005900D92AC38B107D9F721E0ACE8B1E0AA
:1000900001C01D92A03BB207E1F70E9449030C94F6
:1000A00090030C9400002198299A219A299880E1C4
:1000B0008A95F1F72198299A0895282FA0E9B1E0AF
:1000C000FC018E2F821B861708F0089581918D9375
:1000D000F8CF2091A90122FB882780F991E0892798
:1000E0009091A80130E096FF32E0832B30E021FFB1
:1000F00034E0832B30E023FF38E0832B30E026FF11
:1001000030E1832B30E027FF30E2832B3091AA01CE
:1001100040E030FF40E4842B40E025FF40E8842BA2
:100120008093930195FB882780F941E0842720FF85
:1001300045C020E0822B20E094FF24E0822B20E0C9
:1001400097FF28E0822B20E090FF20E1822B20E027
:1001500091FF20E2822B20E093FF20E4822B92FF8C
:100160002FC090E0892B809394018091AC01482F9F
:1001700046959091AD01292F279522272795242B6D
:1001800020939501292F26959091AE019795992757
:100190009795922B9093960136959091AB01292FCC
:1001A000279522272795322B30939701969587958F
:1001B00088278795892B80939801089522E0BACFEC
:1001C00090E8D0CFCF930DB407FE17C0CEB5809185
:1001D000A501811123C0C130E1F48091AF018823D2
:1001E000A1F083EF8EBD8093A7010E945300809100
:1001F000A5018F5F8093A50106C01A9BE4CF8FEF06
:100200008EBD1092A501CF9108958091A7018EBD5A
:10021000ECCF1092A5018FEF8EBDF5CF8091A50197
:10022000E0918E01813031F4E0938D01C0938E0115
:100230008AE5EDCFEE3450F4E13428F3E154ED30AB
:1002400010F7F0E0EE56FC4F0C948A03E038D9F634
:1002500089E08093A60169E080E091E006C089E032
:100260008093A60169E08AE591E00E945D0080919B
:10027000A5018F5F8093A501E091A501F0E0E05713
:10028000FE4F80818EBD9091A5018091A6019817A7
:1002900008F0B9CFCF910C9453008091A70181341D
:1002A00059F465E088E691E00E945D0085E0809366
:1002B000A6010E946900DBCF833739F469E08DE63F
:1002C00091E00E945D0089E0F2CF893791F765E106
:1002D00086E791E00E945D0085E1E9CF89E08093A7
:1002E000A60169E081E591E00E945D008091A50191
:1002F000833061F4C13051F4C093AF018091A70104
:1003000080938C0183EF8093A701D3CF8091A501C7
:10031000833079F6C111CDCF1092AF0180918C015D
:10032000F2CF89E08093A60169E088E491E00E9421
:100330005D00189906C083E78093A70180938C0124
:1003400096CF81E4F9CF89E08093A60169E08FE33D
:1003500091E08BCF89E08093A60180918D0169E0C7
:10036000863419F086E391E080CF8DE291E07DCF75
:1003700089E08093A60169E084E291E076CF89E08C
:100380008093A60180918D0169E08C3419F08BE196
:1003900091E06BCF82E191E068CF89E08093A60184
:1003A00069E089E091E061CF1F920F920FB60F9242
:1003B00011242F933F934F935F936F937F938F936A
:1003C0009F93AF93BF93EF93FF931092A5018FEF8D
:1003D0008EBD1A9B11C0FF91EF91BF91AF919F917C
:1003E0008F917F916F915F914F913F912F910F90DE
:1003F0000FBE0F901F9018950E94E200EACF109256
:10040000A8018091A901807F8093A9018091AA0110
:100410008E6F8093AA018EEF8093AB018093AC0125
:100420008093AD018091AE018E7F8093AE014E9995
:1004300073C0499971C08FE99FE00197F1F700C03F
:1004400000004E9907C0499905C08091A9018460B8
:100450008093A9014A990DC049990BC08FE99FE08B
:100460000197F1F700C000004A9903C0499B109220
:100470008F014C990FC049990DC08FE99FE00197FA
:10048000F1F700C000004C9905C0499903C081E014
:1004900080938F014D9957C0499955C08FE99FE0CE
:1004A0000197F1F700C000004D994DC049994BC02C
:1004B00082E080938F014A990AC08091AD018170DA
:1004C0008093AD018091AE018E7F8093AE014B99F8
:1004D0000AC08091AD018E6F8093AD018091AE0115
:1004E00081608093AE014C990AC08091AC0181700B
:1004F0008093AC018091AD018E7F8093AD014D99C9
:1005000054C08091AC018E6F8093AC018091AD019D
:1005100081608093AD0149C099B121E096FB992794
:1005200090F992278091A80190FB83F98093A8010C
:1005300089B18695817082279091A90180FB93F9FA
:100540009093A90187CF80918F01813009F470C009
:10055000823009F4B0CF811128C029B131E022FBEB
:10056000222720F923278091A90120FB86F9809377
:10057000A90129B123FB222720F923279091AA0161
:1005800020FB90F99093AA0129B12295217023278D
:1005900020FB85F98093A90199B195FB992790F9E2
:1005A000932790FB87F98093A90199B18091A801C5
:1005B0008D7F97FF82608093A80196B18B7F90FF1B
:1005C00084608093A80196B121E09695917092275E
:1005D00090FB80F98093A80196B192FB992790F93E
:1005E000922790FB84F98093A80196B193FB9927F9
:1005F00090F9922790FB87F98093A80196B1929584
:100600009170922790FB85F98093A80196B195FB94
:10061000992790F992278091A90190FB80F9809306
:10062000A90199B18B7F90FF84608093A9010895FF
:100630004A990AC08091AB0181708093AB0180918F
:10064000AC018E7F8093AC014B990AC08091AB01C5
:100650008E6F8093AB018091AC0181608093AC017F
:100660004C990AC08091AA0181708093AA0180915F
:10067000AB018E7F8093AB014D9997CF8091AA01FA
:100680008E6F8093AA018091AB0181608093AB0152
:100690008CCF82E184B98FEF85B917B888B91AB8C1
:1006A0008BB922982A9A23982B9A249A2C9A2598C7
:1006B0002D9A1CBC9CB598609CBD9CB594609CBD5B
:1006C0009CB59F7E9CBD9CB590629CBD9CB5906482
:1006D0009CBD8EBD81E48093A7011092AF012FEFE6
:1006E00083ED90E3215080409040E1F700C000008E
:1006F00084E080936B008091680081608093680043
:1007000078940E94FF018FE39FE10197F1F700C009
:100710000000F7CFEE0FFF1F0590F491E02D099434
:10072000F894FFCF2F014D016E019101A301AA01A1
:0E073000B8010301030103010301BF01CD0164
:10073E00FFF35AFFFFFFFFFFFFFFF35AFFFFFFFF1D
:10074E00FFFFFFF35A000000070000FFF35A0000FE
:10075E0000040000FFF35A000002000100FFF35AEC
:10076E00000001010114FFF35A00000102000AFF0C
:10077E00F35A010201020100FFF35A0000000000CB
:10078E0000FFF35AFFFF7F7F7F7FFF415A0000007B
:10079E00000000FFF35AFFFFFF415AFFFFFF735A9D
:1007AE00FFFF7F7F7F7FFF795AFFFF7F7F7F7F0075
:0C07BE000000000000000000000000002F
:00000001FF
