:10000000C0C00000D9C00000D7C00000D5C00000AB
:10001000D3C00000D1C00000CFC00000CDC00000A0
:10002000CBC00000C9C00000B8C40000C5C00000BB
:10003000C3C00000C1C00000BFC00000BDC00000C0
:10004000BBC00000B9C00000B7C00000B5C00000D0
:10005000B3C00000B1C00000AFC00000ADC00000E0
:10006000ABC00000A9C00000A7C00000A5C00000F0
:10007000A3C00000A1C000009FC000009DC0000000
:100080009BC0000099C0000097C0000095C0000010
:1000900093C0000091C000008FC000008DC0000020
:1000A0008BC0000089C0000087C00000180350000A
:1000B00053003300200041006400610070007400B0
:1000C00065007200000012034A0061006D006D00BF
:1000D000610043006F006E00000004030904090280
:1000E0002200010100803209040000010300000029
:1000F0000921110100012270000705810340000A57
:100100001201100100000040EB0343200001010236
:10011000000105010905A101150025013500450172
:100120007501950D05091901290D810295038101BC
:1001300005012507463B01750495016514093981C0
:100140004265009501810126FF0046FF0009300944
:1001500031093209357508950481020600FF09202E
:100160000921092209230924092509260927092823
:100170000929092A092B950C81020A21269508B123
:1001800002C011241FBECFEFDAE0DEBFCDBF11E009
:10019000A0E0B1E0EEE0FEE002C005900D92A831D3
:1001A000B107D9F721E0A8E1B1E001C01D92AC335D
:1001B000B207E1F713D029C623CF8FE884B98FE3C4
:1001C00087B98FE78AB98BEB8DB98CE080BB8FEF55
:1001D00085B988B98BB98EB981BB089580E88093C1
:1001E00061001092610085B7806885BF85B780681F
:1001F00085BFE3DF81E0C0D101E011E0D9D129B1B1
:10020000221F2227221F2127E3B0E4FAEE24E0F880
:10021000E126C3B1C5FBCC27C0F9C127D3B1D6FBBA
:10022000DD27D0F9D1275FB1551F5527551F51271D
:1002300076B1771F7727771F7127ECB1E2FBEE27A6
:10024000E0F9E12766B166FB662760F961279FB197
:100250009295917091274FB14695417041278CB18D
:1002600086FB882780F98127BFB1B1709B2EBB2EFA
:10027000B126AFB1A6FBAA27A0F9A1273A2F31706A
:10028000D32EFFB1F5FBFF27F0F9F1273F2F317097
:10029000C32E322F382311F000E080E03C2F3823AA
:1002A00031F001E080E0D0E0C0E0E12C20E03D2F23
:1002B000382309F03FC0011119C030E0B3E0220F2C
:1002C000331FBA95E1F7F12CEE0CFF1CEE0CFF1C6E
:1002D0002E293F292D2BD0E0CC0FDD1FC22BD32B95
:1002E000C85FDE4F288120931E0129C0013079F4B8
:1002F000C11104C0D11104C03FE703C030E001C008
:100300003FEF211190C0E11090C0DFE71AC002302A
:10031000B1F4C11104C0DD2321F0CFEF03C0C0E070
:1003200001C0CFE7DFE73FE721110EC0EE2071F0FB
:10033000BFEF0DC002E0DFE73FE780E002C0DFE78C
:100340003FE7BFE7CFE703C0B0E001C0BFE72E2F14
:10035000282319F080E091E0E0E0252F282319F010
:1003600080E041E050E0282F262311F4A12C04C0A6
:10037000AA24A39480E060E0282F272311F4E12C25
:1003800004C0EE24E39480E070E020911C0160FB47
:1003900021F961956093290170FB22F971957093A1
:1003A00028012E7F6E2F619560932A01E22B50FB6E
:1003B000E3F9519550932701D0FAE4F9A195A09360
:1003C0002B01C0FAE5F9F195F0932C0190FBE6F9C9
:1003D000919590932D0140FBE7F9E0931C01419525
:1003E00040932E0190911D0180FB91F9B0FA90F994
:1003F00090931D01882311F091E0911090E080917D
:100400001D0190FB84F9A0FA82F9E0FA83F9809348
:100410001D0130931F01D0932001C0932101B0939F
:100420002201C8D0EBCED0E08CCFDFEF8ACF292FCE
:10043000332723303105E1F058F42130310599F0AC
:100440002230310569F582E290E02EED30E02CC0DB
:100450002132310501F12232310511F580E790E0BA
:1004600022E131E021C082E190E020E031E01CC0D7
:1004700099278130910549F028F0029789F4ECEA38
:10048000F0E005C0EAEDF0E002C0E6ECF0E08491B7
:1004900090E09F0109C089E090E020EF30E004C0C7
:1004A00080E090E020E030E0FA013183208308957D
:1004B000E0911A01F0911B01309709F00994089519
:1004C000E0911801F0911901309709F0099408950D
:1004D00042E361EC81E07DC180913501813021F5FD
:1004E00080913401813A01F5809136019091370174
:1004F0008115934051F48091E800877F8093E80054
:1005000068E070E080E091E009C08091E800877FBA
:100510008093E80063E170E08CE191E097D08091F6
:10052000E8008B778093E800089580913301843050
:1005300099F481E08093E9008091E80080FF0CC08D
:1005400040E050E063E170E08CE191E035D08091D3
:10055000E8008E778093E8000895ECE1F1E083E114
:10056000DF011D928A95E9F788E0828380E8838322
:100570008483858386830895882359F09FE088E1EA
:100580000FB6F894A895809360000FBE909360001A
:100590000BC00FB6F894A895809160008861809395
:1005A0006000109260000FBED8DFDAD17894089511
:1005B000A8950895BADF0FC4CF92DF92EF92FF9211
:1005C0000F931F93CF93DF93EC018B017A0155D1E9
:1005D000811133C0E114F10439F0F7018081918178
:1005E000081B190BC80FD91FC12CD12C01151105DF
:1005F00019F18091E80085FD16C08091E8008E77A2
:100600008093E800E8D3E114F10449F0F701808118
:100610009181C80ED91ED182C08285E00EC02DD135
:10062000882321F30AC089918093F10001501109B8
:10063000FFEFCF1ADF0ADACF80E0DF91CF911F9171
:100640000F91FF90EF90DF90CF90089520913A01A5
:1006500030913B012617370748F06115710539F4D1
:100660002091E8002E772093E80001C0B901FC0139
:1006700020E06115710591F180913301882309F41F
:1006800040C0853009F43FC08091E80083FD3DC043
:100690008091E80082FD2FC08091E80080FFE9CFC3
:1006A0002091F3008091F20090E0922B611571058A
:1006B00051F08034910538F421912093F10061507C
:1006C00071090196F3CF21E08034910509F020E013
:1006D0008091E8008E778093E800CBCF2111CCCFBA
:1006E0000AC080913301882361F0853061F08091E8
:1006F000E80083FD0AC08091E80082FFF2CF80E02D
:10070000089582E0089583E0089581E0089520919E
:100710003A0130913B012617370748F06115710502
:1007200039F42091E8002E772093E80001C0B90148
:10073000FC0120E06115710599F180913301882356
:1007400009F441C0853009F440C08091E80083FD80
:100750003EC08091E80082FD30C08091E80080FFBB
:10076000E9CF2091F3008091F20090E0922B611587
:10077000710559F08034910540F424912093F100E3
:100780003196615071090196F2CF21E080349105D4
:1007900009F020E08091E8008E778093E800CACFCE
:1007A0002111CBCF0AC080913301882361F08530BD
:1007B00061F08091E80083FD0AC08091E80082FF2B
:1007C000F2CF80E0089582E0089583E0089581E00B
:1007D0000895982F973068F59093E900981739F0AD
:1007E0007091EC002091ED005091F00003C0242F97
:1007F000762F50E021FD02C09F5FECCF3091EB00DF
:100800003E7F3093EB003091ED003D7F3093ED0063
:100810003091EB0031603093EB007093EC0020934B
:10082000ED005093F0002091EE0027FDE5CF80E031
:1008300008958F708093E90081E0089580913401DC
:1008400087FF11C08091E80082FD05C080913301CF
:100850008111F8CF11C08091E8008B770BC0809197
:100860003301882349F08091E80080FFF8CF809120
:10087000E8008E778093E80008952091E40030919D
:10088000E50095E64091EC00842F817040FF23C085
:100890008091E80080FD1DC080913301882399F08C
:1008A000853099F08091EB0085FD11C04091E40006
:1008B0005091E5002417350729F3915011F09A0162
:1008C000E1CF84E0089582E0089583E0089581E017
:1008D000089580E008954091E80042FFDDCF08953B
:1008E0000F931F93CF93DF934BD052D0C8EDD0E03E
:1008F00088818F77888388818068888388818F7DCD
:10090000888319BC1092330110922F01109231018B
:100910001092300100EE10E0F80180818B7F80831F
:1009200088818160888342E360E080E052DFE1EE0D
:10093000F0E080818E7F8083E2EEF0E08081816054
:100940008083808188608083F80180818E7F8083AE
:10095000888180618883DF91CF911F910F910895E5
:10096000E8EDF0E080818F7E8083E7EDF0E080812C
:100970008160808384E082BF81E080933201B0CFC8
:10098000E8EDF0E080818E7F80831092E200089590
:100990001092DA001092E10008951F920F920FB6A4
:1009A0000F9211242F933F934F935F936F937F93F5
:1009B0008F939F93AF93BF93EF93FF938091E10049
:1009C00082FF0AC08091E20082FF06C08091E100B0
:1009D0008B7F8093E100FED18091DA0080FF1DC003
:1009E0008091D80080FF19C08091DA008E7F8093BB
:1009F000DA008091D90080FF0CC080E189BD82E1DE
:100A000089BD09B400FEFDCF81E08093330150DD44
:100A100004C019BC1092330153DD8091E10080FFC6
:100A200018C08091E20080FF14C08091E2008E7FA8
:100A30008093E2008091E20080618093E2008091E7
:100A4000D80080628093D80019BC85E08093330180
:100A5000C1D18091E10084FF2FC08091E20084FF2A
:100A60002BC080E189BD82E189BD09B400FEFDCFC4
:100A70008091D8008F7D8093D8008091E1008F7E97
:100A80008093E1008091E2008F7E8093E20080916C
:100A9000E20081608093E20080912F01882311F0B1
:100AA00084E007C08091E30087FD02C081E001C0BF
:100AB00083E0809333018ED18091E10083FF22C0D7
:100AC0008091E20083FF1EC08091E100877F8093C8
:100AD000E10082E08093330110922F018091E100C8
:100AE0008E7F8093E1008091E2008E7F8093E20010
:100AF0008091E20080618093E20042E360E080E068
:100B000068DE68D1FF91EF91BF91AF919F918F9176
:100B10007F916F915F914F913F912F910F900FBEF9
:100B20000F901F9018951F93CF93DF93CDB7DEB72B
:100B3000AA970FB6F894DEBF0FBECDBFE4E3F1E095
:100B40008091F100819321E0EC33F207C9F7C4DC16
:100B50008091E80083FF26C1809134019091350196
:100B6000953009F478C030F4913081F168F0933019
:100B700069F118C1983009F4E2C0993009F4F1C064
:100B8000963009F00FC189C0803881F0823809F0B1
:100B900009C1809138018F708093E9008091EB004A
:100BA00085FB882780F91092E90006C0809130010A
:100BB00090913101911182609091E800977F90931C
:100BC000E8008093F1001092F100C4C0282F2D7F1F
:100BD00009F0E8C0882319F0823061F0E3C0809109
:100BE0003601813009F0DEC0933009F080E0809357
:100BF00031012BC080913601811127C080913801CD
:100C00008F7009F4CFC08093E9002091EB0020FFA2
:100C10001CC0933021F48091EB00806214C090914D
:100C2000EB0090619093EB0021E030E0A90102C05D
:100C3000440F551F8A95E2F74093EA001092EA00AC
:100C40008091EB0088608093EB001092E900809126
:100C5000E800877F82C08111A5C0109136011F77FF
:100C60008091E3008078812B8093E3008091E800FD
:100C7000877F8093E800E2DD8091E80080FFFCCF71
:100C80008091E30080688093E300111102C082E04C
:100C900001C083E08093330185C08058823008F022
:100CA00081C080913601909137018C3D53E09507CA
:100CB00071F583E08A838AE289834FB7F894DE0175
:100CC000139620E03EE051E2E32FF0E0509357000E
:100CD000E49120FF03C0E295EF703F5FEF708E2F2D
:100CE00090E0EA3010F0C79601C0C0968D939D93B6
:100CF0002F5F243149F74FBF8091E800877F8093B1
:100D0000E8006AE270E0CE010196A0DC12C0AE01FC
:100D10004F5F5F4F609138018ADBBC01892B09F47A
:100D200041C09091E800977F9093E80089819A8173
:100D3000EEDC8091E8008B778093E80033C0803848
:100D400089F58091E800877F8093E80080912F01EA
:100D50008093F1008091E8008E778093E8006EDD4B
:100D600021C081111FC080913601909137019927D0
:100D70000297C4F48091E800877F8093E800809117
:100D8000360180932F015ADD80912F01811106C019
:100D90008091E30087FD02C081E001C084E0809380
:100DA000330196DB8091E80083FF0AC08091E80060
:100DB000877F8093E8008091EB0080628093EB0056
:100DC000AA960FB6F894DEBF0FBECDBFDF91CF91CC
:100DD0001F9108950895CF9380913301882399F04E
:100DE000C091E900CF709091EC00892F817090FD47
:100DF00080E8C82B1092E9008091E80083FD93DE23
:0E0E0000CF70C093E900CF910895F894FFCF12
:100E0E002126010700000000080206080403050859
:080E1E0000010708080808089C
:00000001FF
