:1000000088C00000A1C000009FC000009DC000008B
:100010009BC0000099C0000097C0000095C0000080
:1000200093C0000091C00000F4C400008DC0000027
:100030008BC0000089C0000087C0000085C00000A0
:1000400083C0000081C000007FC000007DC00000B0
:100050007BC0000079C0000077C0000075C00000C0
:1000600073C0000071C000006FC000006DC00000D0
:100070006BC0000069C0000067C0000065C00000E0
:1000800063C0000061C000005FC000005DC00000F0
:100090005BC0000059C0000057C0000055C0000000
:1000A00053C0000051C000004FC000001A035800A8
:1000B00042004F00580020004100640061007000C1
:1000C000740065007200000012034A0061006D00B8
:1000D0006D00610043006F006E000000040309041E
:1000E0000902200001010080320904000002584288
:1000F000000007058203200004070502030800042E
:1001000012011001000000085E040202000100005C
:10011000000111241FBECFEFDAE0DEBFCDBF11E03A
:10012000A0E0B1E0ECE9FEE002C005900D92A23043
:10013000B107D9F721E0A2E0B1E001C01D92AB33D5
:10014000B207E1F713D0A8C65BCF8FE884B98FE37D
:1001500087B98FE78AB98BEB8DB98CE080BB8FEFC5
:1001600085B988B98BB98EB981BB089580E8809331
:1001700061001092610085B7806885BF85B780688F
:1001800085BFE3DF81E016D2D12CD1E0CC24C3942B
:1001900001E011E0EE24EA948EEFF82E09D289B145
:1001A000881F8827881F43B163B162956695677081
:1001B0006095617053B15295569556955370509510
:1001C0005170FFB1FF1FFF27FF1FFC25A6B0AA1C1F
:1001D000AA24AA1CAC249CB19695969590959170F2
:1001E00026B1229526952695237020952170EFB192
:1001F000E695E095E1707FB1CCB1C6FBCC27C0F9A4
:100200003FB13170B32EBFB1B295B695B695B3700C
:10021000B095B170AFB1A295A695A770A095A17049
:100220009A2E382F3C2B29F13C2F3C25C62FC32377
:1002300009F05DC0C52FC32309F0E1C042954F709E
:1002400040954170C0910C01DD23B1F0D130C9F16E
:10025000611149C0552309F448C05FEFD2E0AFE710
:100260006FE7813009F04AC08FEF411147C08FE737
:1002700045C0D12CD0E0E2CF8130D9F0C160C0932D
:100280000C0180910C014423B1F0826080930C0139
:1002900080910C01662389F0846080930C01809129
:1002A0000C01552361F0886080930C01AFE76FE784
:1002B00023C0CE7FE4CF8D7FE9CF8B7FEECF877FCA
:1002C000F3CF611105C06FE7552319F06FEF01C03F
:1002D00060E0A82F813081F4D1E0AFE7442361F0E2
:1002E000D42FAFEF09C050E0B9CF5FE7B7CFDC2F15
:1002F000D12CAFE76FE730E08FE75FE7822E8322F4
:1003000009F081C0472F42954F7040954170CA2D2A
:10031000C32309F07FC0792F732309F081C07F2E9A
:10032000732209F07FC0772DCD2D832E2195209348
:100330000E01A194A0920F01919590931001F19557
:10034000F0931101E195E09312014195409313015F
:1003500090910C01882009F469C0CF5FC53620F068
:10036000906190930C01C0E090910C01B11062C0BB
:10037000906290930C0190910C01772309F45CC07A
:10038000906490930C0190910C01772009F456C071
:10039000906890930C01609F9001619F300D112433
:1003A00030583093170120931601AE9D9001AF9DF8
:1003B000300D112421503048309319012093180139
:1003C000509F9001519F300D1124305830931B01E4
:1003D00020931A018E9D90018F9D300D1124215084
:1003E000304830931D0120931C01B195B093140146
:1003F000A92DA195A0931501D9D0DC2ECFCED12C5B
:1004000030E0D2E053CF482D70E020E0C0E0712C06
:10041000812C8CCF70E0EC2FA12CC0E0712C86CF0A
:1004200090E0F5CFC72F872EF0E080CF9F7E90938E
:100430000C019ACF9F7D9DCF9F7BA3CF9F77A9CFA4
:100440009C01DA01832F99278230910529F18330AD
:10045000910549F0019791F482E190E020E031E0CC
:100460002D933C930895C9019927213061F0823082
:10047000910579F0ECEDF0E0892B39F090E080E027
:1004800030E020E0EDCFE8ECF0E0849190E09F01D7
:10049000E7CFECEAF0E0F9CF80E290E020EE30E048
:1004A000DFCFE0910401F0910501309709F0099444
:1004B0000895E0910201F0910301309709F0099449
:1004C000089542E261EC82E09AC1809134019091FA
:1004D0003301813091F4913A81F58091E800877F72
:1004E0008093E80064E170E08AE091E0CDD08091F3
:1004F000E8008B778093E8000895913CF1F4863012
:10050000E1F48091E800877F8093E80060E170E08B
:100510008EE191E0B9D08091E8008B778093E8007C
:1005200081E090E09093090180930801E091060139
:10053000F0910701309709F00994089580913201F4
:10054000843099F482E08093E9008091E80080FF94
:100550000CC050E040E064E170E08AE091E046D0F9
:100560008091E8008E778093E8000895EAE0F1E05A
:1005700084E1DF01982F1D929A95E9F7818390E13C
:10058000948B92E4958B168A91E0978B908F92E0F2
:10059000918F828F86E0838F8FEF848F858F868FF8
:1005A000878F80A381A382A383A30895C7DF5AC442
:1005B000A8950895882371F088E19FE00FB6F8941C
:1005C000A895809360000FBE90936000CFDF04D2A7
:1005D000789408950FB6F894A8958091600088618A
:1005E00080936000109260000FBEF0CFAF92BF9278
:1005F000CF92DF92FF920F931F93CF93DF936C0103
:10060000EB018A014FD1F82E811124C0011511058B
:1006100039F0F80180819181C81BD90BC80ED91E11
:10062000B12CA12C2097B1F08091E80085FD22C06B
:100630008091E8008E778093E80014D401151105AD
:10064000A1F0F80180819181A80EB91EB182A0822B
:1006500085E0F82E8F2DDF91CF911F910F91FF90A4
:10066000DF90CF90BF90AF9008951CD18823D1F236
:10067000F82EF0CFF60181916F018093F100219760
:10068000FFEFAF1ABF0ACECFFC01CB012091390199
:1006900030913A012617370790F0009729F42091FE
:1006A000E8002E772093E80060E0009751F4611194
:1006B00008C08091E80082FF34C080E00895C9013D
:1006C000F3CF209132012223C1F12530C1F12091D5
:1006D000E80023FD30C02091E80022FDEACF209100
:1006E000E80020FFE2CF3091F3002091F20040912A
:1006F000000150E0009719F02417350758F061E029
:100700002417350709F060E02091E8002E77209348
:10071000E800CBCF41914093F10001972F5F3F4F0D
:10072000E6CF80913201882341F0853041F08091FD
:10073000E80083FFBECF81E0089582E0089583E062
:100740000895FC01CB012091390130913A0126171F
:10075000370790F0009729F42091E8002E77209336
:10076000E80060E0009751F4611108C08091E80052
:1007700082FF35C080E00895C901F3CF2091320196
:100780002223C9F12530C9F12091E80023FD31C0B1
:100790002091E80022FDEACF2091E80020FFE2CF7F
:1007A0003091F3002091F2004091000150E0009759
:1007B00019F02417350758F061E02417350709F0C0
:1007C00060E02091E8002E772093E800CBCF4491A1
:1007D0004093F100319601972F5F3F4FE5CF809115
:1007E0003201882341F0853041F08091E80083FF99
:1007F000BDCF81E0089582E0089583E00895982FA9
:10080000973028F08F708093E90081E008959093ED
:10081000E900242F762F50E0981731F07091EC000A
:100820002091ED005091F00021FD02C09F5FE8CFC4
:100830003091EB003E7F3093EB003091ED003D7F37
:100840003093ED003091EB0031603093EB0070930A
:10085000EC002093ED005093F0002091EE0027FD76
:10086000E5CF80E008958091330187FF13C0809128
:10087000E80082FF06C08091E8008B778093E80053
:1008800004C0809132018111F2CF0895809132012C
:100890008823D9F38091E80080FFF8CF8091E800A9
:1008A0008E77ECCF2091E4003091E50095E6A90128
:1008B0002091EC00822F817020FF06C08091E8001B
:1008C00080FF06C080E008952091E80022FD1AC054
:1008D00080913201882389F0853089F08091EB0086
:1008E00085FD0FC02091E4003091E50042175307C9
:1008F000F9F29150E1F684E0089582E0089583E0F2
:10090000089581E00895CF93DF9300D0CDB7DEB78F
:1009100073D07AD08091D8008F778093D80080915F
:10092000D80080688093D8008091D8008F7D809314
:10093000D80019BC1092320110922E011092300191
:1009400010922F01AE014F5F5F4F60E080E091E0B9
:1009500077DD892B31F0E981FA813796E491E093D4
:1009600000018091E0008B7F8093E0008091D800AF
:1009700081608093D8002091000130E088E090E011
:1009800040E08217930720F14295407F426060E08B
:1009900080E035DF8091E1008E7F8093E1008091DF
:1009A000E20081608093E2008091E20088608093A1
:1009B000E2008091E0008E7F8093E0008091D8007B
:1009C00080618093D8000F900F90DF91CF910895B0
:1009D0004F5F880F991FD5CFE8EDF0E080818F7EC3
:1009E0008083E7EDF0E080818160808384E082BFD6
:1009F00081E08093310187CFE8EDF0E080818E7F48
:100A000080831092E20008951092DA001092E100C3
:100A100008951F920F920FB60F9211242F933F93B8
:100A20004F935F936F937F938F939F93AF93BF93F6
:100A3000EF93FF938091E10082FF0AC08091E20072
:100A400082FF06C08091E1008B7F8093E10009D294
:100A50008091DA0080FF18C08091D80080FF14C018
:100A60008091DA008E7F8093DA008091D90080FF38
:100A700095C080E189BD82E189BD09B400FEFDCF4A
:100A800081E0809332010DDD8091E10080FF18C08C
:100A90008091E20080FF14C08091E2008E7F8093FD
:100AA000E2008091E20080618093E2008091D800B2
:100AB00080628093D80019BC85E080933201D1D147
:100AC0008091E10084FF28C08091E20084FF24C06F
:100AD00080E189BD82E189BD09B400FEFDCF80912E
:100AE000D8008F7D8093D8008091E1008F7E809325
:100AF000E1008091E2008F7E8093E2008091E2002D
:100B000081608093E20080912E01882309F44BC01C
:100B100084E080933201A5D18091E10083FF2DC054
:100B20008091E20083FF29C08091E100877F80935C
:100B3000E10082E08093320110922E018091E10069
:100B40008E7F8093E1008091E2008E7F8093E200AF
:100B50008091E20080618093E2002091000130E00A
:100B600088E090E040E08217930728F14295407FAB
:100B7000426060E080E043DE74D1FF91EF91BF916D
:100B8000AF919F918F917F916F915F914F913F9125
:100B90002F910F900FBE0F901F90189519BC1092B7
:100BA000320187DC71CF8091E30087FD02C081E0D4
:100BB000B0CF83E0AECF4F5F880F991FD4CF1F9384
:100BC000CF93DF93CDB7DEB7AA970FB6F894DEBF09
:100BD0000FBECDBF83E391E0FC0101962091F100AF
:100BE000208321E08B339207B9F76FDC8091E80016
:100BF00083FF10C08091330190913401953009F446
:100C0000BCC000F5292F2D7F213009F486C099231F
:100C100009F45EC08091E80083FF0AC08091E8007B
:100C2000877F8093E8008091EB0080628093EB00E7
:100C3000AA960FB6F894DEBF0FBECDBFDF91CF915D
:100C40001F910895983009F4CDC0993009F4D7C0A8
:100C5000963001F780588230E8F680913501909106
:100C600036018C3D23E0920709F0A9C083E08A8316
:100C70008AE289834FB7F894DE01139620E03EE0C4
:100C800051E2E32FF0E050935700E49120FF03C0BE
:100C9000E295EF703F5FEF708E2F90E0EA3008F43E
:100CA0008CC0C7968D939D932F5F243151F74FBF12
:100CB0008091E800877F8093E8006AE270E0CE01CF
:100CC0000196E2DC8091E8008B778093E800A2CF68
:100CD000803881F0823809F09DCF809137018F7084
:100CE0008093E9008091EB0085FB882780F91092C2
:100CF000E90006C080912F0190913001911182602E
:100D00009091E800977F9093E8008093F100109213
:100D1000F1008091E8008E77A0C0882309F48DC08F
:100D2000823009F077CF80913501811191C0809197
:100D300037018F7009F46ECF8093E9002091EB00AA
:100D400020FF86C0933031F48091EB008062809365
:100D5000EB007EC09091EB0090619093EB0021E05E
:100D600030E001C0220F8A95EAF72093EA00109242
:100D7000EA008091EB008860EACF81114BCF10919F
:100D800035011F778091E3008078812B8093E30009
:100D90008091E800877F8093E80065DD8091E8001E
:100DA00080FFFCCF8091E30080688093E30082E0C5
:100DB000111183E0809332012DCFC09673CFAE0125
:100DC0004F5F5F4F609137013BDBBC01892B09F41A
:100DD00021CF8091E800877F8093E80089819A8104
:100DE000B0DC70CF803809F015CF8091E800877FA4
:100DF0008093E80080912E018093F1008ACF8111C9
:100E000009CF90913501923008F004CF8091E8002D
:100E1000877F8093E80090932E0125DD80912E013D
:100E2000882311F084E005C08091E30087FDFACFAC
:100E300081E08093320145DBEDCE80913501813038
:100E400009F0E8CE81E0933009F080E08093300132
:100E50001092E9008091E800877F8093E80003DD2D
:100E6000D9CE0895CF9380913201882399F0C09113
:100E7000E900CF709091EC00892F817090FD80E89F
:100E8000C82B1092E9008091E80083FD98DECF70B6
:0C0E9000C093E900CF910895F894FFCFC3
:020E9C0008004C
:00000001FF
